{
  "contractName": "Auth",
  "abi": [
    {
      "inputs": [],
      "payable": false,
      "stateMutability": "nonpayable",
      "type": "constructor"
    },
    {
      "anonymous": false,
      "inputs": [
        {
          "indexed": false,
          "internalType": "address",
          "name": "doctor_addr",
          "type": "address"
        },
        {
          "indexed": false,
          "internalType": "address",
          "name": "patient_addr",
          "type": "address"
        },
        {
          "indexed": false,
          "internalType": "uint256",
          "name": "document_id",
          "type": "uint256"
        }
      ],
      "name": "DocumentAdded",
      "type": "event"
    },
    {
      "anonymous": false,
      "inputs": [
        {
          "indexed": false,
          "internalType": "address",
          "name": "addr",
          "type": "address"
        },
        {
          "indexed": false,
          "internalType": "string",
          "name": "email",
          "type": "string"
        }
      ],
      "name": "PatientInfoUpdated",
      "type": "event"
    },
    {
      "anonymous": false,
      "inputs": [
        {
          "indexed": false,
          "internalType": "address",
          "name": "addr",
          "type": "address"
        },
        {
          "indexed": false,
          "internalType": "string",
          "name": "email",
          "type": "string"
        }
      ],
      "name": "UserRegistered",
      "type": "event"
    },
    {
      "anonymous": false,
      "inputs": [
        {
          "indexed": false,
          "internalType": "address",
          "name": "addr",
          "type": "address"
        },
        {
          "indexed": false,
          "internalType": "string",
          "name": "email",
          "type": "string"
        }
      ],
      "name": "contactInfoUpdated",
      "type": "event"
    },
    {
      "anonymous": false,
      "inputs": [
        {
          "indexed": false,
          "internalType": "enum Auth.UserRole",
          "name": "role",
          "type": "uint8"
        }
      ],
      "name": "getRoleEvent",
      "type": "event"
    },
    {
      "constant": true,
      "inputs": [],
      "name": "AdminCount",
      "outputs": [
        {
          "internalType": "uint256",
          "name": "",
          "type": "uint256"
        }
      ],
      "payable": false,
      "stateMutability": "view",
      "type": "function"
    },
    {
      "constant": true,
      "inputs": [
        {
          "internalType": "uint256",
          "name": "",
          "type": "uint256"
        }
      ],
      "name": "adminAddresses",
      "outputs": [
        {
          "internalType": "address",
          "name": "",
          "type": "address"
        }
      ],
      "payable": false,
      "stateMutability": "view",
      "type": "function"
    },
    {
      "constant": true,
      "inputs": [
        {
          "internalType": "uint256",
          "name": "",
          "type": "uint256"
        }
      ],
      "name": "doctorAddresses",
      "outputs": [
        {
          "internalType": "address",
          "name": "",
          "type": "address"
        }
      ],
      "payable": false,
      "stateMutability": "view",
      "type": "function"
    },
    {
      "constant": true,
      "inputs": [],
      "name": "doctorCount",
      "outputs": [
        {
          "internalType": "uint256",
          "name": "",
          "type": "uint256"
        }
      ],
      "payable": false,
      "stateMutability": "view",
      "type": "function"
    },
    {
      "constant": true,
      "inputs": [
        {
          "internalType": "address",
          "name": "",
          "type": "address"
        }
      ],
      "name": "doctors",
      "outputs": [
        {
          "internalType": "address",
          "name": "addr",
          "type": "address"
        },
        {
          "internalType": "string",
          "name": "speciality",
          "type": "string"
        },
        {
          "internalType": "string",
          "name": "Institution",
          "type": "string"
        },
        {
          "internalType": "string",
          "name": "workAddress",
          "type": "string"
        }
      ],
      "payable": false,
      "stateMutability": "view",
      "type": "function"
    },
    {
      "constant": true,
      "inputs": [
        {
          "internalType": "uint256",
          "name": "",
          "type": "uint256"
        }
      ],
      "name": "documents",
      "outputs": [
        {
          "internalType": "address",
          "name": "patient_addr",
          "type": "address"
        },
        {
          "internalType": "address",
          "name": "doctor_addr",
          "type": "address"
        },
        {
          "internalType": "string",
          "name": "document_type",
          "type": "string"
        },
        {
          "internalType": "string",
          "name": "document_description",
          "type": "string"
        },
        {
          "internalType": "uint256",
          "name": "document_id",
          "type": "uint256"
        },
        {
          "internalType": "string",
          "name": "document_link",
          "type": "string"
        },
        {
          "internalType": "string",
          "name": "date",
          "type": "string"
        }
      ],
      "payable": false,
      "stateMutability": "view",
      "type": "function"
    },
    {
      "constant": true,
      "inputs": [
        {
          "internalType": "uint256",
          "name": "",
          "type": "uint256"
        }
      ],
      "name": "patientAddresses",
      "outputs": [
        {
          "internalType": "address",
          "name": "",
          "type": "address"
        }
      ],
      "payable": false,
      "stateMutability": "view",
      "type": "function"
    },
    {
      "constant": true,
      "inputs": [],
      "name": "patientCount",
      "outputs": [
        {
          "internalType": "uint256",
          "name": "",
          "type": "uint256"
        }
      ],
      "payable": false,
      "stateMutability": "view",
      "type": "function"
    },
    {
      "constant": true,
      "inputs": [
        {
          "internalType": "address",
          "name": "",
          "type": "address"
        },
        {
          "internalType": "uint256",
          "name": "",
          "type": "uint256"
        }
      ],
      "name": "patient_documents",
      "outputs": [
        {
          "internalType": "address",
          "name": "patient_addr",
          "type": "address"
        },
        {
          "internalType": "address",
          "name": "doctor_addr",
          "type": "address"
        },
        {
          "internalType": "string",
          "name": "document_type",
          "type": "string"
        },
        {
          "internalType": "string",
          "name": "document_description",
          "type": "string"
        },
        {
          "internalType": "uint256",
          "name": "document_id",
          "type": "uint256"
        },
        {
          "internalType": "string",
          "name": "document_link",
          "type": "string"
        },
        {
          "internalType": "string",
          "name": "date",
          "type": "string"
        }
      ],
      "payable": false,
      "stateMutability": "view",
      "type": "function"
    },
    {
      "constant": true,
      "inputs": [
        {
          "internalType": "address",
          "name": "",
          "type": "address"
        }
      ],
      "name": "patients",
      "outputs": [
        {
          "internalType": "address",
          "name": "addr",
          "type": "address"
        },
        {
          "internalType": "string",
          "name": "homeAddress",
          "type": "string"
        },
        {
          "internalType": "string",
          "name": "weight",
          "type": "string"
        },
        {
          "internalType": "string",
          "name": "height",
          "type": "string"
        },
        {
          "internalType": "string",
          "name": "allergies",
          "type": "string"
        },
        {
          "internalType": "string",
          "name": "chronic_illness",
          "type": "string"
        },
        {
          "internalType": "uint256",
          "name": "patient_docCount",
          "type": "uint256"
        }
      ],
      "payable": false,
      "stateMutability": "view",
      "type": "function"
    },
    {
      "constant": true,
      "inputs": [
        {
          "internalType": "address",
          "name": "",
          "type": "address"
        }
      ],
      "name": "users",
      "outputs": [
        {
          "internalType": "address",
          "name": "addr",
          "type": "address"
        },
        {
          "internalType": "string",
          "name": "firstName",
          "type": "string"
        },
        {
          "internalType": "string",
          "name": "lastName",
          "type": "string"
        },
        {
          "internalType": "string",
          "name": "email",
          "type": "string"
        },
        {
          "internalType": "string",
          "name": "phoneNum",
          "type": "string"
        },
        {
          "internalType": "string",
          "name": "DOB",
          "type": "string"
        },
        {
          "internalType": "string",
          "name": "gender",
          "type": "string"
        },
        {
          "internalType": "enum Auth.UserRole",
          "name": "role",
          "type": "uint8"
        }
      ],
      "payable": false,
      "stateMutability": "view",
      "type": "function"
    },
    {
      "constant": false,
      "inputs": [
        {
          "internalType": "address",
          "name": "_address",
          "type": "address"
        },
        {
          "internalType": "string",
          "name": "_firstName",
          "type": "string"
        },
        {
          "internalType": "string",
          "name": "_lastName",
          "type": "string"
        },
        {
          "internalType": "string",
          "name": "_email",
          "type": "string"
        },
        {
          "internalType": "string",
          "name": "_phoneNum",
          "type": "string"
        },
        {
          "internalType": "string",
          "name": "_DOB",
          "type": "string"
        },
        {
          "internalType": "string",
          "name": "_homeAddress",
          "type": "string"
        },
        {
          "internalType": "string",
          "name": "_gender",
          "type": "string"
        }
      ],
      "name": "registerPatient",
      "outputs": [],
      "payable": false,
      "stateMutability": "nonpayable",
      "type": "function"
    },
    {
      "constant": false,
      "inputs": [
        {
          "internalType": "address",
          "name": "_address",
          "type": "address"
        },
        {
          "internalType": "string",
          "name": "_firstName",
          "type": "string"
        },
        {
          "internalType": "string",
          "name": "_lastName",
          "type": "string"
        },
        {
          "internalType": "string",
          "name": "_email",
          "type": "string"
        },
        {
          "internalType": "string",
          "name": "_phoneNum",
          "type": "string"
        },
        {
          "internalType": "string",
          "name": "_DOB",
          "type": "string"
        },
        {
          "internalType": "string",
          "name": "_gender",
          "type": "string"
        }
      ],
      "name": "registerAdmin",
      "outputs": [],
      "payable": false,
      "stateMutability": "nonpayable",
      "type": "function"
    },
    {
      "constant": false,
      "inputs": [
        {
          "internalType": "address",
          "name": "_address",
          "type": "address"
        },
        {
          "internalType": "string",
          "name": "_firstName",
          "type": "string"
        },
        {
          "internalType": "string",
          "name": "_lastName",
          "type": "string"
        },
        {
          "internalType": "string",
          "name": "_speciality",
          "type": "string"
        },
        {
          "internalType": "string",
          "name": "_institution",
          "type": "string"
        },
        {
          "internalType": "string",
          "name": "_email",
          "type": "string"
        },
        {
          "internalType": "string",
          "name": "_phoneNum",
          "type": "string"
        },
        {
          "internalType": "string",
          "name": "_DOB",
          "type": "string"
        },
        {
          "internalType": "string",
          "name": "_workAddress",
          "type": "string"
        },
        {
          "internalType": "string",
          "name": "_gender",
          "type": "string"
        }
      ],
      "name": "registerDoctor",
      "outputs": [],
      "payable": false,
      "stateMutability": "nonpayable",
      "type": "function"
    },
    {
      "constant": false,
      "inputs": [
        {
          "internalType": "address",
          "name": "_addr",
          "type": "address"
        },
        {
          "internalType": "string",
          "name": "_weight",
          "type": "string"
        },
        {
          "internalType": "string",
          "name": "_height",
          "type": "string"
        },
        {
          "internalType": "string",
          "name": "_allergies",
          "type": "string"
        },
        {
          "internalType": "string",
          "name": "_chronic_illness",
          "type": "string"
        }
      ],
      "name": "addPatientInfo",
      "outputs": [],
      "payable": false,
      "stateMutability": "nonpayable",
      "type": "function"
    },
    {
      "constant": true,
      "inputs": [
        {
          "internalType": "address",
          "name": "_addr",
          "type": "address"
        }
      ],
      "name": "checkRegister",
      "outputs": [
        {
          "internalType": "bool",
          "name": "",
          "type": "bool"
        }
      ],
      "payable": false,
      "stateMutability": "view",
      "type": "function"
    },
    {
      "constant": true,
      "inputs": [
        {
          "internalType": "address",
          "name": "_addr",
          "type": "address"
        }
      ],
      "name": "isAdmin",
      "outputs": [
        {
          "internalType": "bool",
          "name": "",
          "type": "bool"
        }
      ],
      "payable": false,
      "stateMutability": "view",
      "type": "function"
    },
    {
      "constant": true,
      "inputs": [],
      "name": "isOwner",
      "outputs": [
        {
          "internalType": "bool",
          "name": "",
          "type": "bool"
        }
      ],
      "payable": false,
      "stateMutability": "view",
      "type": "function"
    },
    {
      "constant": true,
      "inputs": [
        {
          "internalType": "address",
          "name": "_addr",
          "type": "address"
        }
      ],
      "name": "isDoctor",
      "outputs": [
        {
          "internalType": "bool",
          "name": "",
          "type": "bool"
        }
      ],
      "payable": false,
      "stateMutability": "view",
      "type": "function"
    },
    {
      "constant": false,
      "inputs": [
        {
          "internalType": "address",
          "name": "_patient_addr",
          "type": "address"
        },
        {
          "internalType": "string",
          "name": "_document_type",
          "type": "string"
        },
        {
          "internalType": "string",
          "name": "_document_link",
          "type": "string"
        },
        {
          "internalType": "string",
          "name": "_document_description",
          "type": "string"
        },
        {
          "internalType": "string",
          "name": "_date",
          "type": "string"
        }
      ],
      "name": "Add_document",
      "outputs": [],
      "payable": false,
      "stateMutability": "nonpayable",
      "type": "function"
    },
    {
      "constant": false,
      "inputs": [
        {
          "internalType": "string",
          "name": "_email",
          "type": "string"
        },
        {
          "internalType": "string",
          "name": "_phoneNum",
          "type": "string"
        },
        {
          "internalType": "string",
          "name": "_homeAddress",
          "type": "string"
        }
      ],
      "name": "updateContactInfo",
      "outputs": [],
      "payable": false,
      "stateMutability": "nonpayable",
      "type": "function"
    },
    {
      "constant": true,
      "inputs": [
        {
          "internalType": "address",
          "name": "_addr",
          "type": "address"
        }
      ],
      "name": "getRole",
      "outputs": [
        {
          "internalType": "enum Auth.UserRole",
          "name": "",
          "type": "uint8"
        }
      ],
      "payable": false,
      "stateMutability": "view",
      "type": "function"
    }
  ],
  "bytecode": "0x608060405260006001556000600255600060035560006004553480156200002557600080fd5b50336000806101000a81548173ffffffffffffffffffffffffffffffffffffffff021916908373ffffffffffffffffffffffffffffffffffffffff1602179055506000809054906101000a900473ffffffffffffffffffffffffffffffffffffffff16600560008060009054906101000a900473ffffffffffffffffffffffffffffffffffffffff1673ffffffffffffffffffffffffffffffffffffffff1673ffffffffffffffffffffffffffffffffffffffff16815260200190815260200160002060000160006101000a81548173ffffffffffffffffffffffffffffffffffffffff021916908373ffffffffffffffffffffffffffffffffffffffff1602179055506004600560008060009054906101000a900473ffffffffffffffffffffffffffffffffffffffff1673ffffffffffffffffffffffffffffffffffffffff1673ffffffffffffffffffffffffffffffffffffffff16815260200190815260200160002060070160006101000a81548160ff02191690836004811115620001aa57fe5b02179055506040518060400160405280600581526020017f41646d696e000000000000000000000000000000000000000000000000000000815250600560008060009054906101000a900473ffffffffffffffffffffffffffffffffffffffff1673ffffffffffffffffffffffffffffffffffffffff1673ffffffffffffffffffffffffffffffffffffffff16815260200190815260200160002060010190805190602001906200025d92919062000313565b506040518060400160405280600581526020017f4f776e6572000000000000000000000000000000000000000000000000000000815250600560008060009054906101000a900473ffffffffffffffffffffffffffffffffffffffff1673ffffffffffffffffffffffffffffffffffffffff1673ffffffffffffffffffffffffffffffffffffffff16815260200190815260200160002060020190805190602001906200030c92919062000313565b50620003c2565b828054600181600116156101000203166002900490600052602060002090601f016020900481019282601f106200035657805160ff191683800117855562000387565b8280016001018555821562000387579182015b828111156200038657825182559160200191906001019062000369565b5b5090506200039691906200039a565b5090565b620003bf91905b80821115620003bb576000816000905550600101620003a1565b5090565b90565b6153f680620003d26000396000f3fe608060405234801561001057600080fd5b50600436106101425760003560e01c80638f32d59b116100b8578063a9583c221161007c578063a9583c2214611aec578063b40f169114611cb4578063ba44eecf14611d22578063c2ed2b0514611d90578063d495362714611fe8578063f5d8bcb41461257c57610142565b80638f32d59b146114b7578063995f0634146114d9578063996440c614611751578063a0303c41146117ad578063a87430ba146117cb57610142565b806354a69ed31161010a57806354a69ed3146107be5780635cd2606b14610b8c5780635db0479d14610baa57806378522bc414610d9357806380dd877614610db15780638488eaf21461121757610142565b80630869cfbc1461014757806324d7806c146103ee5780633ba51e7c1461044a57806344276733146104b85780634d69d2d81461051e575b600080fd5b6101896004803603602081101561015d57600080fd5b81019080803573ffffffffffffffffffffffffffffffffffffffff1690602001909291905050506125d8565b604051808873ffffffffffffffffffffffffffffffffffffffff1673ffffffffffffffffffffffffffffffffffffffff168152602001806020018060200180602001806020018060200187815260200186810386528c818151815260200191508051906020019080838360005b838110156102115780820151818401526020810190506101f6565b50505050905090810190601f16801561023e5780820380516001836020036101000a031916815260200191505b5086810385528b818151815260200191508051906020019080838360005b8381101561027757808201518184015260208101905061025c565b50505050905090810190601f1680156102a45780820380516001836020036101000a031916815260200191505b5086810384528a818151815260200191508051906020019080838360005b838110156102dd5780820151818401526020810190506102c2565b50505050905090810190601f16801561030a5780820380516001836020036101000a031916815260200191505b50868103835289818151815260200191508051906020019080838360005b83811015610343578082015181840152602081019050610328565b50505050905090810190601f1680156103705780820380516001836020036101000a031916815260200191505b50868103825288818151815260200191508051906020019080838360005b838110156103a957808201518184015260208101905061038e565b50505050905090810190601f1680156103d65780820380516001836020036101000a031916815260200191505b509c5050505050505050505050505060405180910390f35b6104306004803603602081101561040457600080fd5b81019080803573ffffffffffffffffffffffffffffffffffffffff169060200190929190505050612932565b604051808215151515815260200191505060405180910390f35b6104766004803603602081101561046057600080fd5b81019080803590602001909291905050506129a4565b604051808273ffffffffffffffffffffffffffffffffffffffff1673ffffffffffffffffffffffffffffffffffffffff16815260200191505060405180910390f35b6104fa600480360360208110156104ce57600080fd5b81019080803573ffffffffffffffffffffffffffffffffffffffff1690602001909291905050506129d7565b6040518082600481111561050a57fe5b60ff16815260200191505060405180910390f35b6107bc600480360360a081101561053457600080fd5b81019080803573ffffffffffffffffffffffffffffffffffffffff1690602001909291908035906020019064010000000081111561057157600080fd5b82018360208201111561058357600080fd5b803590602001918460018302840111640100000000831117156105a557600080fd5b91908080601f016020809104026020016040519081016040528093929190818152602001838380828437600081840152601f19601f8201169050808301925050505050505091929192908035906020019064010000000081111561060857600080fd5b82018360208201111561061a57600080fd5b8035906020019184600183028401116401000000008311171561063c57600080fd5b91908080601f016020809104026020016040519081016040528093929190818152602001838380828437600081840152601f19601f8201169050808301925050505050505091929192908035906020019064010000000081111561069f57600080fd5b8201836020820111156106b157600080fd5b803590602001918460018302840111640100000000831117156106d357600080fd5b91908080601f016020809104026020016040519081016040528093929190818152602001838380828437600081840152601f19601f8201169050808301925050505050505091929192908035906020019064010000000081111561073657600080fd5b82018360208201111561074857600080fd5b8035906020019184600183028401116401000000008311171561076a57600080fd5b91908080601f016020809104026020016040519081016040528093929190818152602001838380828437600081840152601f19601f820116905080830192505050505050509192919290505050612ad0565b005b610b8a600480360360e08110156107d457600080fd5b81019080803573ffffffffffffffffffffffffffffffffffffffff1690602001909291908035906020019064010000000081111561081157600080fd5b82018360208201111561082357600080fd5b8035906020019184600183028401116401000000008311171561084557600080fd5b91908080601f016020809104026020016040519081016040528093929190818152602001838380828437600081840152601f19601f820116905080830192505050505050509192919290803590602001906401000000008111156108a857600080fd5b8201836020820111156108ba57600080fd5b803590602001918460018302840111640100000000831117156108dc57600080fd5b91908080601f016020809104026020016040519081016040528093929190818152602001838380828437600081840152601f19601f8201169050808301925050505050505091929192908035906020019064010000000081111561093f57600080fd5b82018360208201111561095157600080fd5b8035906020019184600183028401116401000000008311171561097357600080fd5b91908080601f016020809104026020016040519081016040528093929190818152602001838380828437600081840152601f19601f820116905080830192505050505050509192919290803590602001906401000000008111156109d657600080fd5b8201836020820111156109e857600080fd5b80359060200191846001830284011164010000000083111715610a0a57600080fd5b91908080601f016020809104026020016040519081016040528093929190818152602001838380828437600081840152601f19601f82011690508083019250505050505050919291929080359060200190640100000000811115610a6d57600080fd5b820183602082011115610a7f57600080fd5b80359060200191846001830284011164010000000083111715610aa157600080fd5b91908080601f016020809104026020016040519081016040528093929190818152602001838380828437600081840152601f19601f82011690508083019250505050505050919291929080359060200190640100000000811115610b0457600080fd5b820183602082011115610b1657600080fd5b80359060200191846001830284011164010000000083111715610b3857600080fd5b91908080601f016020809104026020016040519081016040528093929190818152602001838380828437600081840152601f19601f820116905080830192505050505050509192919290505050612eb4565b005b610b94613208565b6040518082815260200191505060405180910390f35b610d9160048036036060811015610bc057600080fd5b8101908080359060200190640100000000811115610bdd57600080fd5b820183602082011115610bef57600080fd5b80359060200191846001830284011164010000000083111715610c1157600080fd5b91908080601f016020809104026020016040519081016040528093929190818152602001838380828437600081840152601f19601f82011690508083019250505050505050919291929080359060200190640100000000811115610c7457600080fd5b820183602082011115610c8657600080fd5b80359060200191846001830284011164010000000083111715610ca857600080fd5b91908080601f016020809104026020016040519081016040528093929190818152602001838380828437600081840152601f19601f82011690508083019250505050505050919291929080359060200190640100000000811115610d0b57600080fd5b820183602082011115610d1d57600080fd5b80359060200191846001830284011164010000000083111715610d3f57600080fd5b91908080601f016020809104026020016040519081016040528093929190818152602001838380828437600081840152601f19601f82011690508083019250505050505050919291929050505061320e565b005b610d9b613522565b6040518082815260200191505060405180910390f35b6112156004803603610100811015610dc857600080fd5b81019080803573ffffffffffffffffffffffffffffffffffffffff16906020019092919080359060200190640100000000811115610e0557600080fd5b820183602082011115610e1757600080fd5b80359060200191846001830284011164010000000083111715610e3957600080fd5b91908080601f016020809104026020016040519081016040528093929190818152602001838380828437600081840152601f19601f82011690508083019250505050505050919291929080359060200190640100000000811115610e9c57600080fd5b820183602082011115610eae57600080fd5b80359060200191846001830284011164010000000083111715610ed057600080fd5b91908080601f016020809104026020016040519081016040528093929190818152602001838380828437600081840152601f19601f82011690508083019250505050505050919291929080359060200190640100000000811115610f3357600080fd5b820183602082011115610f4557600080fd5b80359060200191846001830284011164010000000083111715610f6757600080fd5b91908080601f016020809104026020016040519081016040528093929190818152602001838380828437600081840152601f19601f82011690508083019250505050505050919291929080359060200190640100000000811115610fca57600080fd5b820183602082011115610fdc57600080fd5b80359060200191846001830284011164010000000083111715610ffe57600080fd5b91908080601f016020809104026020016040519081016040528093929190818152602001838380828437600081840152601f19601f8201169050808301925050505050505091929192908035906020019064010000000081111561106157600080fd5b82018360208201111561107357600080fd5b8035906020019184600183028401116401000000008311171561109557600080fd5b91908080601f016020809104026020016040519081016040528093929190818152602001838380828437600081840152601f19601f820116905080830192505050505050509192919290803590602001906401000000008111156110f857600080fd5b82018360208201111561110a57600080fd5b8035906020019184600183028401116401000000008311171561112c57600080fd5b91908080601f016020809104026020016040519081016040528093929190818152602001838380828437600081840152601f19601f8201169050808301925050505050505091929192908035906020019064010000000081111561118f57600080fd5b8201836020820111156111a157600080fd5b803590602001918460018302840111640100000000831117156111c357600080fd5b91908080601f016020809104026020016040519081016040528093929190818152602001838380828437600081840152601f19601f820116905080830192505050505050509192919290505050613528565b005b6114b5600480360360a081101561122d57600080fd5b81019080803573ffffffffffffffffffffffffffffffffffffffff1690602001909291908035906020019064010000000081111561126a57600080fd5b82018360208201111561127c57600080fd5b8035906020019184600183028401116401000000008311171561129e57600080fd5b91908080601f016020809104026020016040519081016040528093929190818152602001838380828437600081840152601f19601f8201169050808301925050505050505091929192908035906020019064010000000081111561130157600080fd5b82018360208201111561131357600080fd5b8035906020019184600183028401116401000000008311171561133557600080fd5b91908080601f016020809104026020016040519081016040528093929190818152602001838380828437600081840152601f19601f8201169050808301925050505050505091929192908035906020019064010000000081111561139857600080fd5b8201836020820111156113aa57600080fd5b803590602001918460018302840111640100000000831117156113cc57600080fd5b91908080601f016020809104026020016040519081016040528093929190818152602001838380828437600081840152601f19601f8201169050808301925050505050505091929192908035906020019064010000000081111561142f57600080fd5b82018360208201111561144157600080fd5b8035906020019184600183028401116401000000008311171561146357600080fd5b91908080601f016020809104026020016040519081016040528093929190818152602001838380828437600081840152601f19601f820116905080830192505050505050509192919290505050613b47565b005b6114bf613fe9565b604051808215151515815260200191505060405180910390f35b611525600480360360408110156114ef57600080fd5b81019080803573ffffffffffffffffffffffffffffffffffffffff16906020019092919080359060200190929190505050614040565b604051808873ffffffffffffffffffffffffffffffffffffffff1673ffffffffffffffffffffffffffffffffffffffff1681526020018773ffffffffffffffffffffffffffffffffffffffff1673ffffffffffffffffffffffffffffffffffffffff1681526020018060200180602001868152602001806020018060200185810385528a818151815260200191508051906020019080838360005b838110156115db5780820151818401526020810190506115c0565b50505050905090810190601f1680156116085780820380516001836020036101000a031916815260200191505b50858103845289818151815260200191508051906020019080838360005b83811015611641578082015181840152602081019050611626565b50505050905090810190601f16801561166e5780820380516001836020036101000a031916815260200191505b50858103835287818151815260200191508051906020019080838360005b838110156116a757808201518184015260208101905061168c565b50505050905090810190601f1680156116d45780820380516001836020036101000a031916815260200191505b50858103825286818151815260200191508051906020019080838360005b8381101561170d5780820151818401526020810190506116f2565b50505050905090810190601f16801561173a5780820380516001836020036101000a031916815260200191505b509b50505050505050505050505060405180910390f35b6117936004803603602081101561176757600080fd5b81019080803573ffffffffffffffffffffffffffffffffffffffff16906020019092919050505061432f565b604051808215151515815260200191505060405180910390f35b6117b56143a1565b6040518082815260200191505060405180910390f35b61180d600480360360208110156117e157600080fd5b81019080803573ffffffffffffffffffffffffffffffffffffffff1690602001909291905050506143a7565b604051808973ffffffffffffffffffffffffffffffffffffffff1673ffffffffffffffffffffffffffffffffffffffff16815260200180602001806020018060200180602001806020018060200188600481111561186757fe5b60ff16815260200187810387528e818151815260200191508051906020019080838360005b838110156118a757808201518184015260208101905061188c565b50505050905090810190601f1680156118d45780820380516001836020036101000a031916815260200191505b5087810386528d818151815260200191508051906020019080838360005b8381101561190d5780820151818401526020810190506118f2565b50505050905090810190601f16801561193a5780820380516001836020036101000a031916815260200191505b5087810385528c818151815260200191508051906020019080838360005b83811015611973578082015181840152602081019050611958565b50505050905090810190601f1680156119a05780820380516001836020036101000a031916815260200191505b5087810384528b818151815260200191508051906020019080838360005b838110156119d95780820151818401526020810190506119be565b50505050905090810190601f168015611a065780820380516001836020036101000a031916815260200191505b5087810383528a818151815260200191508051906020019080838360005b83811015611a3f578082015181840152602081019050611a24565b50505050905090810190601f168015611a6c5780820380516001836020036101000a031916815260200191505b50878103825289818151815260200191508051906020019080838360005b83811015611aa5578082015181840152602081019050611a8a565b50505050905090810190601f168015611ad25780820380516001836020036101000a031916815260200191505b509e50505050505050505050505050505060405180910390f35b611b2e60048036036020811015611b0257600080fd5b81019080803573ffffffffffffffffffffffffffffffffffffffff1690602001909291905050506147ac565b604051808573ffffffffffffffffffffffffffffffffffffffff1673ffffffffffffffffffffffffffffffffffffffff168152602001806020018060200180602001848103845287818151815260200191508051906020019080838360005b83811015611ba8578082015181840152602081019050611b8d565b50505050905090810190601f168015611bd55780820380516001836020036101000a031916815260200191505b50848103835286818151815260200191508051906020019080838360005b83811015611c0e578082015181840152602081019050611bf3565b50505050905090810190601f168015611c3b5780820380516001836020036101000a031916815260200191505b50848103825285818151815260200191508051906020019080838360005b83811015611c74578082015181840152602081019050611c59565b50505050905090810190601f168015611ca15780820380516001836020036101000a031916815260200191505b5097505050505050505060405180910390f35b611ce060048036036020811015611cca57600080fd5b81019080803590602001909291905050506149c4565b604051808273ffffffffffffffffffffffffffffffffffffffff1673ffffffffffffffffffffffffffffffffffffffff16815260200191505060405180910390f35b611d4e60048036036020811015611d3857600080fd5b81019080803590602001909291905050506149f7565b604051808273ffffffffffffffffffffffffffffffffffffffff1673ffffffffffffffffffffffffffffffffffffffff16815260200191505060405180910390f35b611dbc60048036036020811015611da657600080fd5b8101908080359060200190929190505050614a2a565b604051808873ffffffffffffffffffffffffffffffffffffffff1673ffffffffffffffffffffffffffffffffffffffff1681526020018773ffffffffffffffffffffffffffffffffffffffff1673ffffffffffffffffffffffffffffffffffffffff1681526020018060200180602001868152602001806020018060200185810385528a818151815260200191508051906020019080838360005b83811015611e72578082015181840152602081019050611e57565b50505050905090810190601f168015611e9f5780820380516001836020036101000a031916815260200191505b50858103845289818151815260200191508051906020019080838360005b83811015611ed8578082015181840152602081019050611ebd565b50505050905090810190601f168015611f055780820380516001836020036101000a031916815260200191505b50858103835287818151815260200191508051906020019080838360005b83811015611f3e578082015181840152602081019050611f23565b50505050905090810190601f168015611f6b5780820380516001836020036101000a031916815260200191505b50858103825286818151815260200191508051906020019080838360005b83811015611fa4578082015181840152602081019050611f89565b50505050905090810190601f168015611fd15780820380516001836020036101000a031916815260200191505b509b50505050505050505050505060405180910390f35b61257a6004803603610140811015611fff57600080fd5b81019080803573ffffffffffffffffffffffffffffffffffffffff1690602001909291908035906020019064010000000081111561203c57600080fd5b82018360208201111561204e57600080fd5b8035906020019184600183028401116401000000008311171561207057600080fd5b91908080601f016020809104026020016040519081016040528093929190818152602001838380828437600081840152601f19601f820116905080830192505050505050509192919290803590602001906401000000008111156120d357600080fd5b8201836020820111156120e557600080fd5b8035906020019184600183028401116401000000008311171561210757600080fd5b91908080601f016020809104026020016040519081016040528093929190818152602001838380828437600081840152601f19601f8201169050808301925050505050505091929192908035906020019064010000000081111561216a57600080fd5b82018360208201111561217c57600080fd5b8035906020019184600183028401116401000000008311171561219e57600080fd5b91908080601f016020809104026020016040519081016040528093929190818152602001838380828437600081840152601f19601f8201169050808301925050505050505091929192908035906020019064010000000081111561220157600080fd5b82018360208201111561221357600080fd5b8035906020019184600183028401116401000000008311171561223557600080fd5b91908080601f016020809104026020016040519081016040528093929190818152602001838380828437600081840152601f19601f8201169050808301925050505050505091929192908035906020019064010000000081111561229857600080fd5b8201836020820111156122aa57600080fd5b803590602001918460018302840111640100000000831117156122cc57600080fd5b91908080601f016020809104026020016040519081016040528093929190818152602001838380828437600081840152601f19601f8201169050808301925050505050505091929192908035906020019064010000000081111561232f57600080fd5b82018360208201111561234157600080fd5b8035906020019184600183028401116401000000008311171561236357600080fd5b91908080601f016020809104026020016040519081016040528093929190818152602001838380828437600081840152601f19601f820116905080830192505050505050509192919290803590602001906401000000008111156123c657600080fd5b8201836020820111156123d857600080fd5b803590602001918460018302840111640100000000831117156123fa57600080fd5b91908080601f016020809104026020016040519081016040528093929190818152602001838380828437600081840152601f19601f8201169050808301925050505050505091929192908035906020019064010000000081111561245d57600080fd5b82018360208201111561246f57600080fd5b8035906020019184600183028401116401000000008311171561249157600080fd5b91908080601f016020809104026020016040519081016040528093929190818152602001838380828437600081840152601f19601f820116905080830192505050505050509192919290803590602001906401000000008111156124f457600080fd5b82018360208201111561250657600080fd5b8035906020019184600183028401116401000000008311171561252857600080fd5b91908080601f016020809104026020016040519081016040528093929190818152602001838380828437600081840152601f19601f820116905080830192505050505050509192919290505050614d0c565b005b6125be6004803603602081101561259257600080fd5b81019080803573ffffffffffffffffffffffffffffffffffffffff169060200190929190505050615202565b604051808215151515815260200191505060405180910390f35b60066020528060005260406000206000915090508060000160009054906101000a900473ffffffffffffffffffffffffffffffffffffffff1690806001018054600181600116156101000203166002900480601f0160208091040260200160405190810160405280929190818152602001828054600181600116156101000203166002900480156126aa5780601f1061267f576101008083540402835291602001916126aa565b820191906000526020600020905b81548152906001019060200180831161268d57829003601f168201915b505050505090806002018054600181600116156101000203166002900480601f0160208091040260200160405190810160405280929190818152602001828054600181600116156101000203166002900480156127485780601f1061271d57610100808354040283529160200191612748565b820191906000526020600020905b81548152906001019060200180831161272b57829003601f168201915b505050505090806003018054600181600116156101000203166002900480601f0160208091040260200160405190810160405280929190818152602001828054600181600116156101000203166002900480156127e65780601f106127bb576101008083540402835291602001916127e6565b820191906000526020600020905b8154815290600101906020018083116127c957829003601f168201915b505050505090806004018054600181600116156101000203166002900480601f0160208091040260200160405190810160405280929190818152602001828054600181600116156101000203166002900480156128845780601f1061285957610100808354040283529160200191612884565b820191906000526020600020905b81548152906001019060200180831161286757829003601f168201915b505050505090806005018054600181600116156101000203166002900480601f0160208091040260200160405190810160405280929190818152602001828054600181600116156101000203166002900480156129225780601f106128f757610100808354040283529160200191612922565b820191906000526020600020905b81548152906001019060200180831161290557829003601f168201915b5050505050908060060154905087565b60006002600481111561294157fe5b600560008473ffffffffffffffffffffffffffffffffffffffff1673ffffffffffffffffffffffffffffffffffffffff16815260200190815260200160002060070160009054906101000a900460ff16600481111561299c57fe5b149050919050565b60096020528060005260406000206000915054906101000a900473ffffffffffffffffffffffffffffffffffffffff1681565b60008173ffffffffffffffffffffffffffffffffffffffff16600560008473ffffffffffffffffffffffffffffffffffffffff1673ffffffffffffffffffffffffffffffffffffffff16815260200190815260200160002060000160009054906101000a900473ffffffffffffffffffffffffffffffffffffffff1673ffffffffffffffffffffffffffffffffffffffff161415612ac657600560008373ffffffffffffffffffffffffffffffffffffffff1673ffffffffffffffffffffffffffffffffffffffff16815260200190815260200160002060070160009054906101000a900460ff169050612acb565b600390505b919050565b60016004811115612add57fe5b600560003373ffffffffffffffffffffffffffffffffffffffff1673ffffffffffffffffffffffffffffffffffffffff16815260200190815260200160002060070160009054906101000a900460ff166004811115612b3857fe5b14612b4257600080fd5b60006004811115612b4f57fe5b600560008773ffffffffffffffffffffffffffffffffffffffff1673ffffffffffffffffffffffffffffffffffffffff16815260200190815260200160002060070160009054906101000a900460ff166004811115612baa57fe5b14612bb457600080fd5b6000600660008773ffffffffffffffffffffffffffffffffffffffff1673ffffffffffffffffffffffffffffffffffffffff1681526020019081526020016000206006015490506040518060e001604052808773ffffffffffffffffffffffffffffffffffffffff1681526020013373ffffffffffffffffffffffffffffffffffffffff168152602001868152602001848152602001600154815260200185815260200183815250600c60008873ffffffffffffffffffffffffffffffffffffffff1673ffffffffffffffffffffffffffffffffffffffff168152602001908152602001600020600083815260200190815260200160002060008201518160000160006101000a81548173ffffffffffffffffffffffffffffffffffffffff021916908373ffffffffffffffffffffffffffffffffffffffff16021790555060208201518160010160006101000a81548173ffffffffffffffffffffffffffffffffffffffff021916908373ffffffffffffffffffffffffffffffffffffffff1602179055506040820151816002019080519060200190612d5692919061529c565b506060820151816003019080519060200190612d7392919061529c565b506080820151816004015560a0820151816005019080519060200190612d9a92919061529c565b5060c0820151816006019080519060200190612db792919061529c565b50905050600660008773ffffffffffffffffffffffffffffffffffffffff1673ffffffffffffffffffffffffffffffffffffffff168152602001908152602001600020600601600081548092919060010191905055507f7e10cf451999996b37fba227e8b4fc27db1a527100ef000761b172bca4f61449338783604051808473ffffffffffffffffffffffffffffffffffffffff1673ffffffffffffffffffffffffffffffffffffffff1681526020018373ffffffffffffffffffffffffffffffffffffffff1673ffffffffffffffffffffffffffffffffffffffff168152602001828152602001935050505060405180910390a1505050505050565b6000809054906101000a900473ffffffffffffffffffffffffffffffffffffffff1673ffffffffffffffffffffffffffffffffffffffff163373ffffffffffffffffffffffffffffffffffffffff1614612f0d57600080fd5b6040518061010001604052808873ffffffffffffffffffffffffffffffffffffffff16815260200187815260200186815260200185815260200184815260200183815260200182815260200160026004811115612f6657fe5b815250600560008973ffffffffffffffffffffffffffffffffffffffff1673ffffffffffffffffffffffffffffffffffffffff16815260200190815260200160002060008201518160000160006101000a81548173ffffffffffffffffffffffffffffffffffffffff021916908373ffffffffffffffffffffffffffffffffffffffff160217905550602082015181600101908051906020019061300b92919061529c565b50604082015181600201908051906020019061302892919061529c565b50606082015181600301908051906020019061304592919061529c565b50608082015181600401908051906020019061306292919061529c565b5060a082015181600501908051906020019061307f92919061529c565b5060c082015181600601908051906020019061309c92919061529c565b5060e08201518160070160006101000a81548160ff021916908360048111156130c157fe5b021790555090505086600a6000600454815260200190815260200160002060006101000a81548173ffffffffffffffffffffffffffffffffffffffff021916908373ffffffffffffffffffffffffffffffffffffffff1602179055506004600081548092919060010191905055507f48cac28ad4dc618e15f4c2dd5e97751182f166de97b25618318b2112aa951a2f8785604051808373ffffffffffffffffffffffffffffffffffffffff1673ffffffffffffffffffffffffffffffffffffffff16815260200180602001828103825283818151815260200191508051906020019080838360005b838110156131c45780820151818401526020810190506131a9565b50505050905090810190601f1680156131f15780820380516001836020036101000a031916815260200191505b50935050505060405180910390a150505050505050565b60045481565b82600560003373ffffffffffffffffffffffffffffffffffffffff1673ffffffffffffffffffffffffffffffffffffffff168152602001908152602001600020600301908051906020019061326492919061531c565b5081600560003373ffffffffffffffffffffffffffffffffffffffff1673ffffffffffffffffffffffffffffffffffffffff16815260200190815260200160002060040190805190602001906132bb92919061531c565b50600160048111156132c957fe5b600560003373ffffffffffffffffffffffffffffffffffffffff1673ffffffffffffffffffffffffffffffffffffffff16815260200190815260200160002060070160009054906101000a900460ff16600481111561332457fe5b14156133865780600760003373ffffffffffffffffffffffffffffffffffffffff1673ffffffffffffffffffffffffffffffffffffffff168152602001908152602001600020600301908051906020019061338092919061531c565b5061344d565b6000600481111561339357fe5b600560003373ffffffffffffffffffffffffffffffffffffffff1673ffffffffffffffffffffffffffffffffffffffff16815260200190815260200160002060070160009054906101000a900460ff1660048111156133ee57fe5b141561344c5780600660003373ffffffffffffffffffffffffffffffffffffffff1673ffffffffffffffffffffffffffffffffffffffff168152602001908152602001600020600101908051906020019061344a92919061531c565b505b5b7f21fc6ff2d6532778d88feaca50eb3b95c2b50d05343169d76632b897e1324b583384604051808373ffffffffffffffffffffffffffffffffffffffff1673ffffffffffffffffffffffffffffffffffffffff16815260200180602001828103825283818151815260200191508051906020019080838360005b838110156134e25780820151818401526020810190506134c7565b50505050905090810190601f16801561350f5780820380516001836020036101000a031916815260200191505b50935050505060405180910390a1505050565b60035481565b6002600481111561353557fe5b600560003373ffffffffffffffffffffffffffffffffffffffff1673ffffffffffffffffffffffffffffffffffffffff16815260200190815260200160002060070160009054906101000a900460ff16600481111561359057fe5b148061360057506004808111156135a357fe5b600560003373ffffffffffffffffffffffffffffffffffffffff1673ffffffffffffffffffffffffffffffffffffffff16815260200190815260200160002060070160009054906101000a900460ff1660048111156135fe57fe5b145b61360957600080fd5b6040518061010001604052808973ffffffffffffffffffffffffffffffffffffffff1681526020018881526020018781526020018681526020018581526020018481526020018281526020016000600481111561366257fe5b815250600560008a73ffffffffffffffffffffffffffffffffffffffff1673ffffffffffffffffffffffffffffffffffffffff16815260200190815260200160002060008201518160000160006101000a81548173ffffffffffffffffffffffffffffffffffffffff021916908373ffffffffffffffffffffffffffffffffffffffff160217905550602082015181600101908051906020019061370792919061529c565b50604082015181600201908051906020019061372492919061529c565b50606082015181600301908051906020019061374192919061529c565b50608082015181600401908051906020019061375e92919061529c565b5060a082015181600501908051906020019061377b92919061529c565b5060c082015181600601908051906020019061379892919061529c565b5060e08201518160070160006101000a81548160ff021916908360048111156137bd57fe5b02179055509050508760086000600254815260200190815260200160002060006101000a81548173ffffffffffffffffffffffffffffffffffffffff021916908373ffffffffffffffffffffffffffffffffffffffff1602179055506040518060e001604052808973ffffffffffffffffffffffffffffffffffffffff1681526020018381526020016040518060400160405280600781526020017f4e6f74205365740000000000000000000000000000000000000000000000000081525081526020016040518060400160405280600781526020017f4e6f74205365740000000000000000000000000000000000000000000000000081525081526020016040518060400160405280600781526020017f4e6f74205365740000000000000000000000000000000000000000000000000081525081526020016040518060400160405280600781526020017f4e6f74205365740000000000000000000000000000000000000000000000000081525081526020016000815250600660008a73ffffffffffffffffffffffffffffffffffffffff1673ffffffffffffffffffffffffffffffffffffffff16815260200190815260200160002060008201518160000160006101000a81548173ffffffffffffffffffffffffffffffffffffffff021916908373ffffffffffffffffffffffffffffffffffffffff16021790555060208201518160010190805190602001906139d992919061529c565b5060408201518160020190805190602001906139f692919061529c565b506060820151816003019080519060200190613a1392919061529c565b506080820151816004019080519060200190613a3092919061529c565b5060a0820151816005019080519060200190613a4d92919061529c565b5060c082015181600601559050506002600081548092919060010191905055507f48cac28ad4dc618e15f4c2dd5e97751182f166de97b25618318b2112aa951a2f8886604051808373ffffffffffffffffffffffffffffffffffffffff1673ffffffffffffffffffffffffffffffffffffffff16815260200180602001828103825283818151815260200191508051906020019080838360005b83811015613b02578082015181840152602081019050613ae7565b50505050905090810190601f168015613b2f5780820380516001836020036101000a031916815260200191505b50935050505060405180910390a15050505050505050565b60016004811115613b5457fe5b600560003373ffffffffffffffffffffffffffffffffffffffff1673ffffffffffffffffffffffffffffffffffffffff16815260200190815260200160002060070160009054906101000a900460ff166004811115613baf57fe5b14613bb957600080fd5b60006004811115613bc657fe5b600560008773ffffffffffffffffffffffffffffffffffffffff1673ffffffffffffffffffffffffffffffffffffffff16815260200190815260200160002060070160009054906101000a900460ff166004811115613c2157fe5b14613c2b57600080fd5b6040518060e001604052808673ffffffffffffffffffffffffffffffffffffffff168152602001600660008873ffffffffffffffffffffffffffffffffffffffff1673ffffffffffffffffffffffffffffffffffffffff1681526020019081526020016000206001018054600181600116156101000203166002900480601f016020809104026020016040519081016040528092919081815260200182805460018160011615610100020316600290048015613d285780601f10613cfd57610100808354040283529160200191613d28565b820191906000526020600020905b815481529060010190602001808311613d0b57829003601f168201915b50505050508152602001858152602001848152602001838152602001828152602001600660008873ffffffffffffffffffffffffffffffffffffffff1673ffffffffffffffffffffffffffffffffffffffff16815260200190815260200160002060060154815250600660008773ffffffffffffffffffffffffffffffffffffffff1673ffffffffffffffffffffffffffffffffffffffff16815260200190815260200160002060008201518160000160006101000a81548173ffffffffffffffffffffffffffffffffffffffff021916908373ffffffffffffffffffffffffffffffffffffffff1602179055506020820151816001019080519060200190613e3292919061529c565b506040820151816002019080519060200190613e4f92919061529c565b506060820151816003019080519060200190613e6c92919061529c565b506080820151816004019080519060200190613e8992919061529c565b5060a0820151816005019080519060200190613ea692919061529c565b5060c082015181600601559050507f900c65ec418bcf24243e2101b9c9bb6b4a4ba5a832f0501bf5677c6bfa891a4785600560008873ffffffffffffffffffffffffffffffffffffffff1673ffffffffffffffffffffffffffffffffffffffff168152602001908152602001600020600301604051808373ffffffffffffffffffffffffffffffffffffffff1673ffffffffffffffffffffffffffffffffffffffff16815260200180602001828103825283818154600181600116156101000203166002900481526020019150805460018160011615610100020316600290048015613fd35780601f10613fa857610100808354040283529160200191613fd3565b820191906000526020600020905b815481529060010190602001808311613fb657829003601f168201915b5050935050505060405180910390a15050505050565b60008060009054906101000a900473ffffffffffffffffffffffffffffffffffffffff1673ffffffffffffffffffffffffffffffffffffffff163373ffffffffffffffffffffffffffffffffffffffff1614905090565b600c602052816000526040600020602052806000526040600020600091509150508060000160009054906101000a900473ffffffffffffffffffffffffffffffffffffffff16908060010160009054906101000a900473ffffffffffffffffffffffffffffffffffffffff1690806002018054600181600116156101000203166002900480601f0160208091040260200160405190810160405280929190818152602001828054600181600116156101000203166002900480156141455780601f1061411a57610100808354040283529160200191614145565b820191906000526020600020905b81548152906001019060200180831161412857829003601f168201915b505050505090806003018054600181600116156101000203166002900480601f0160208091040260200160405190810160405280929190818152602001828054600181600116156101000203166002900480156141e35780601f106141b8576101008083540402835291602001916141e3565b820191906000526020600020905b8154815290600101906020018083116141c657829003601f168201915b505050505090806004015490806005018054600181600116156101000203166002900480601f0160208091040260200160405190810160405280929190818152602001828054600181600116156101000203166002900480156142875780601f1061425c57610100808354040283529160200191614287565b820191906000526020600020905b81548152906001019060200180831161426a57829003601f168201915b505050505090806006018054600181600116156101000203166002900480601f0160208091040260200160405190810160405280929190818152602001828054600181600116156101000203166002900480156143255780601f106142fa57610100808354040283529160200191614325565b820191906000526020600020905b81548152906001019060200180831161430857829003601f168201915b5050505050905087565b60006001600481111561433e57fe5b600560008473ffffffffffffffffffffffffffffffffffffffff1673ffffffffffffffffffffffffffffffffffffffff16815260200190815260200160002060070160009054906101000a900460ff16600481111561439957fe5b149050919050565b60025481565b60056020528060005260406000206000915090508060000160009054906101000a900473ffffffffffffffffffffffffffffffffffffffff1690806001018054600181600116156101000203166002900480601f0160208091040260200160405190810160405280929190818152602001828054600181600116156101000203166002900480156144795780601f1061444e57610100808354040283529160200191614479565b820191906000526020600020905b81548152906001019060200180831161445c57829003601f168201915b505050505090806002018054600181600116156101000203166002900480601f0160208091040260200160405190810160405280929190818152602001828054600181600116156101000203166002900480156145175780601f106144ec57610100808354040283529160200191614517565b820191906000526020600020905b8154815290600101906020018083116144fa57829003601f168201915b505050505090806003018054600181600116156101000203166002900480601f0160208091040260200160405190810160405280929190818152602001828054600181600116156101000203166002900480156145b55780601f1061458a576101008083540402835291602001916145b5565b820191906000526020600020905b81548152906001019060200180831161459857829003601f168201915b505050505090806004018054600181600116156101000203166002900480601f0160208091040260200160405190810160405280929190818152602001828054600181600116156101000203166002900480156146535780601f1061462857610100808354040283529160200191614653565b820191906000526020600020905b81548152906001019060200180831161463657829003601f168201915b505050505090806005018054600181600116156101000203166002900480601f0160208091040260200160405190810160405280929190818152602001828054600181600116156101000203166002900480156146f15780601f106146c6576101008083540402835291602001916146f1565b820191906000526020600020905b8154815290600101906020018083116146d457829003601f168201915b505050505090806006018054600181600116156101000203166002900480601f01602080910402602001604051908101604052809291908181526020018280546001816001161561010002031660029004801561478f5780601f106147645761010080835404028352916020019161478f565b820191906000526020600020905b81548152906001019060200180831161477257829003601f168201915b5050505050908060070160009054906101000a900460ff16905088565b60076020528060005260406000206000915090508060000160009054906101000a900473ffffffffffffffffffffffffffffffffffffffff1690806001018054600181600116156101000203166002900480601f01602080910402602001604051908101604052809291908181526020018280546001816001161561010002031660029004801561487e5780601f106148535761010080835404028352916020019161487e565b820191906000526020600020905b81548152906001019060200180831161486157829003601f168201915b505050505090806002018054600181600116156101000203166002900480601f01602080910402602001604051908101604052809291908181526020018280546001816001161561010002031660029004801561491c5780601f106148f15761010080835404028352916020019161491c565b820191906000526020600020905b8154815290600101906020018083116148ff57829003601f168201915b505050505090806003018054600181600116156101000203166002900480601f0160208091040260200160405190810160405280929190818152602001828054600181600116156101000203166002900480156149ba5780601f1061498f576101008083540402835291602001916149ba565b820191906000526020600020905b81548152906001019060200180831161499d57829003601f168201915b5050505050905084565b60086020528060005260406000206000915054906101000a900473ffffffffffffffffffffffffffffffffffffffff1681565b600a6020528060005260406000206000915054906101000a900473ffffffffffffffffffffffffffffffffffffffff1681565b600b6020528060005260406000206000915090508060000160009054906101000a900473ffffffffffffffffffffffffffffffffffffffff16908060010160009054906101000a900473ffffffffffffffffffffffffffffffffffffffff1690806002018054600181600116156101000203166002900480601f016020809104026020016040519081016040528092919081815260200182805460018160011615610100020316600290048015614b225780601f10614af757610100808354040283529160200191614b22565b820191906000526020600020905b815481529060010190602001808311614b0557829003601f168201915b505050505090806003018054600181600116156101000203166002900480601f016020809104026020016040519081016040528092919081815260200182805460018160011615610100020316600290048015614bc05780601f10614b9557610100808354040283529160200191614bc0565b820191906000526020600020905b815481529060010190602001808311614ba357829003601f168201915b505050505090806004015490806005018054600181600116156101000203166002900480601f016020809104026020016040519081016040528092919081815260200182805460018160011615610100020316600290048015614c645780601f10614c3957610100808354040283529160200191614c64565b820191906000526020600020905b815481529060010190602001808311614c4757829003601f168201915b505050505090806006018054600181600116156101000203166002900480601f016020809104026020016040519081016040528092919081815260200182805460018160011615610100020316600290048015614d025780601f10614cd757610100808354040283529160200191614d02565b820191906000526020600020905b815481529060010190602001808311614ce557829003601f168201915b5050505050905087565b60026004811115614d1957fe5b600560003373ffffffffffffffffffffffffffffffffffffffff1673ffffffffffffffffffffffffffffffffffffffff16815260200190815260200160002060070160009054906101000a900460ff166004811115614d7457fe5b1480614de45750600480811115614d8757fe5b600560003373ffffffffffffffffffffffffffffffffffffffff1673ffffffffffffffffffffffffffffffffffffffff16815260200190815260200160002060070160009054906101000a900460ff166004811115614de257fe5b145b614ded57600080fd5b6040518061010001604052808b73ffffffffffffffffffffffffffffffffffffffff1681526020018a815260200189815260200186815260200185815260200184815260200182815260200160016004811115614e4657fe5b815250600560008c73ffffffffffffffffffffffffffffffffffffffff1673ffffffffffffffffffffffffffffffffffffffff16815260200190815260200160002060008201518160000160006101000a81548173ffffffffffffffffffffffffffffffffffffffff021916908373ffffffffffffffffffffffffffffffffffffffff1602179055506020820151816001019080519060200190614eeb92919061529c565b506040820151816002019080519060200190614f0892919061529c565b506060820151816003019080519060200190614f2592919061529c565b506080820151816004019080519060200190614f4292919061529c565b5060a0820151816005019080519060200190614f5f92919061529c565b5060c0820151816006019080519060200190614f7c92919061529c565b5060e08201518160070160006101000a81548160ff02191690836004811115614fa157fe5b021790555090505060405180608001604052808b73ffffffffffffffffffffffffffffffffffffffff16815260200188815260200187815260200183815250600760008c73ffffffffffffffffffffffffffffffffffffffff1673ffffffffffffffffffffffffffffffffffffffff16815260200190815260200160002060008201518160000160006101000a81548173ffffffffffffffffffffffffffffffffffffffff021916908373ffffffffffffffffffffffffffffffffffffffff160217905550602082015181600101908051906020019061508292919061529c565b50604082015181600201908051906020019061509f92919061529c565b5060608201518160030190805190602001906150bc92919061529c565b509050508960096000600354815260200190815260200160002060006101000a81548173ffffffffffffffffffffffffffffffffffffffff021916908373ffffffffffffffffffffffffffffffffffffffff1602179055506003600081548092919060010191905055507f48cac28ad4dc618e15f4c2dd5e97751182f166de97b25618318b2112aa951a2f8a86604051808373ffffffffffffffffffffffffffffffffffffffff1673ffffffffffffffffffffffffffffffffffffffff16815260200180602001828103825283818151815260200191508051906020019080838360005b838110156151bb5780820151818401526020810190506151a0565b50505050905090810190601f1680156151e85780820380516001836020036101000a031916815260200191505b50935050505060405180910390a150505050505050505050565b60008173ffffffffffffffffffffffffffffffffffffffff16600560008473ffffffffffffffffffffffffffffffffffffffff1673ffffffffffffffffffffffffffffffffffffffff16815260200190815260200160002060000160009054906101000a900473ffffffffffffffffffffffffffffffffffffffff1673ffffffffffffffffffffffffffffffffffffffff16149050919050565b828054600181600116156101000203166002900490600052602060002090601f016020900481019282601f106152dd57805160ff191683800117855561530b565b8280016001018555821561530b579182015b8281111561530a5782518255916020019190600101906152ef565b5b509050615318919061539c565b5090565b828054600181600116156101000203166002900490600052602060002090601f016020900481019282601f1061535d57805160ff191683800117855561538b565b8280016001018555821561538b579182015b8281111561538a57825182559160200191906001019061536f565b5b509050615398919061539c565b5090565b6153be91905b808211156153ba5760008160009055506001016153a2565b5090565b9056fea265627a7a723158201197563dad01362175b5b3e310036f1b912b9542ecdb4c7cdabb508295499eab64736f6c63430005100032",
  "source": "pragma solidity >=0.4.0 ;\r\n\r\ncontract Auth {\r\n\r\n    address ownerAddress;\r\n    uint docCount = 0;\r\n    uint public patientCount = 0;\r\n    uint public doctorCount = 0;\r\n    uint public AdminCount = 0;\r\n\r\n    constructor() public {\r\n        ownerAddress = msg.sender;\r\n        users[ownerAddress].addr = ownerAddress;\r\n        users[ownerAddress].role = UserRole.AdminOwner;\r\n        users[ownerAddress].firstName = \"Admin\";\r\n        users[ownerAddress].lastName = \"Owner\";\r\n    }\r\n\r\n    modifier onlyOwner() {\r\n        require(msg.sender == ownerAddress);\r\n        _;\r\n    }\r\n\r\n    modifier onlyAdmin() {\r\n        require(users[msg.sender].role == UserRole.Admin || users[msg.sender].role == UserRole.AdminOwner);\r\n        _;\r\n    }\r\n\r\n    modifier notAdmin() {\r\n        require(users[msg.sender].role != UserRole.Admin);\r\n        _;\r\n    }\r\n\r\n    event contactInfoUpdated(\r\n        address addr,\r\n        string email\r\n    );\r\n    event getRoleEvent(\r\n        UserRole role\r\n    );\r\n\r\n    event UserRegistered(\r\n        address addr,\r\n        string email\r\n    );\r\n\r\n    event PatientInfoUpdated(\r\n        address addr,\r\n        string email\r\n    );\r\n\r\n    event DocumentAdded(\r\n        address doctor_addr,\r\n        address patient_addr,\r\n        uint document_id\r\n    );\r\n\r\n    mapping(address => UserInfo) public users;\r\n    mapping(address => PatientInfo) public patients;\r\n    mapping(address => DoctorInfo) public doctors;\r\n    mapping(uint => address) public patientAddresses;\r\n    mapping(uint => address) public doctorAddresses;\r\n    mapping(uint => address) public adminAddresses;\r\n    mapping(uint => Document) public documents;\r\n    mapping(address => mapping(uint => Document)) public patient_documents;\r\n\r\n    enum UserRole{Patient, Doctor, Admin, Anon, AdminOwner}\r\n\r\n     struct UserInfo{\r\n        address addr;\r\n        string firstName;\r\n        string lastName;\r\n        string email;\r\n        string phoneNum;\r\n        string DOB;\r\n        string gender;\r\n        UserRole role;\r\n    }\r\n\r\n    struct AdminInfo{\r\n        address addr;\r\n    \r\n    }\r\n    \r\n    struct PatientInfo{\r\n        address addr;\r\n        string homeAddress;\r\n        string weight;\r\n        string height;\r\n        string allergies;\r\n        string chronic_illness;\r\n        uint patient_docCount;\r\n    }\r\n\r\n    struct DoctorInfo{\r\n         address addr;\r\n         string speciality;\r\n         string Institution;\r\n         string workAddress;\r\n    }\r\n\r\n    struct Document{\r\n        address patient_addr;\r\n        address doctor_addr;\r\n        string document_type;\r\n        string document_description;\r\n        uint document_id;\r\n        string document_link;\r\n        string date;\r\n    }\r\n\r\n    function registerPatient(\r\n        address  _address,\r\n        string memory _firstName,\r\n        string memory _lastName,\r\n        string memory _email,\r\n        string memory _phoneNum,\r\n        string memory _DOB,\r\n        string memory _homeAddress,\r\n        string memory _gender\r\n    ) public onlyAdmin {\r\n        users[_address]= UserInfo(_address, _firstName, _lastName, _email, _phoneNum, _DOB, _gender, UserRole.Patient);\r\n        patientAddresses[patientCount]= _address;\r\n        patients[_address]=PatientInfo(_address, _homeAddress,\"Not Set\",\"Not Set\",\"Not Set\",\"Not Set\", 0);\r\n        patientCount++;\r\n        emit UserRegistered(_address, _email);    \r\n    }\r\n\r\n    function registerAdmin(\r\n        address  _address,\r\n        string memory _firstName,\r\n        string memory _lastName,\r\n        string memory _email,\r\n        string memory _phoneNum,\r\n        string memory _DOB,\r\n        string memory _gender\r\n    ) public onlyOwner {\r\n        users[_address]= UserInfo(_address, _firstName, _lastName, _email, _phoneNum, _DOB, _gender, UserRole.Admin);\r\n        adminAddresses[AdminCount]= _address;\r\n        AdminCount++;\r\n        emit UserRegistered(_address, _email);    \r\n    }\r\n\r\n\r\n        function registerDoctor(\r\n        address  _address,\r\n        string memory _firstName,\r\n        string memory _lastName,\r\n        string memory _speciality,\r\n        string memory _institution,\r\n        string memory _email,\r\n        string memory _phoneNum,\r\n        string memory _DOB,\r\n        string memory _workAddress,\r\n        string memory _gender\r\n    ) public onlyAdmin {\r\n        users[_address]= UserInfo(_address, _firstName, _lastName, _email, _phoneNum, _DOB, _gender, UserRole.Doctor);\r\n        doctors[_address] = DoctorInfo(_address, _speciality, _institution, _workAddress);\r\n        doctorAddresses[doctorCount] = _address;\r\n        doctorCount++;\r\n        emit UserRegistered(_address, _email);    \r\n    }\r\n\r\n    function addPatientInfo(\r\n        address  _addr,\r\n        string memory _weight,\r\n        string memory _height,\r\n        string memory _allergies,\r\n        string memory _chronic_illness\r\n    ) public {\r\n        require(users[msg.sender].role == UserRole.Doctor);\r\n        require(users[_addr].role == UserRole.Patient);\r\n        patients[_addr]= PatientInfo(_addr, patients[_addr].homeAddress, _weight, _height, _allergies, _chronic_illness, patients[_addr].patient_docCount);\r\n        emit PatientInfoUpdated(_addr, users[_addr].email);  \r\n    }\r\n\r\n    function checkRegister(address _addr) public view returns (bool) {\r\n        return users[_addr].addr == _addr;\r\n    }\r\n\r\n    function isAdmin(address _addr) public view returns (bool) {\r\n        return users[_addr].role == UserRole.Admin;\r\n    }\r\n\r\n    function isOwner() public view returns (bool) {\r\n        return msg.sender == ownerAddress;\r\n    }\r\n\r\n    function isDoctor(address _addr) public view returns (bool) {\r\n        return users[_addr].role == UserRole.Doctor;\r\n    }\r\n\r\n    \r\n    \r\n\r\n    function Add_document(\r\n        address  _patient_addr, \r\n        string memory _document_type,\r\n        string memory _document_link,\r\n        string memory _document_description,\r\n        string memory _date\r\n    ) public {\r\n        require(users[msg.sender].role == UserRole.Doctor);\r\n        require(users[_patient_addr].role == UserRole.Patient);\r\n        uint _doc_id = patients[_patient_addr].patient_docCount;\r\n        patient_documents[_patient_addr][_doc_id] = Document(_patient_addr, msg.sender, _document_type, _document_description, docCount,  _document_link, _date);\r\n        patients[_patient_addr].patient_docCount++;\r\n        emit DocumentAdded(msg.sender, _patient_addr, _doc_id);\r\n    }\r\n\r\n    function updateContactInfo(\r\n        string memory _email,\r\n        string memory _phoneNum,\r\n        string memory _homeAddress\r\n    ) public {\r\n        users[msg.sender].email = _email;\r\n        users[msg.sender].phoneNum = _phoneNum;\r\n        if(users[msg.sender].role== UserRole.Doctor){\r\n            doctors[msg.sender].workAddress=_homeAddress;\r\n        }else if(users[msg.sender].role== UserRole.Patient){\r\n            patients[msg.sender].homeAddress = _homeAddress;\r\n        }\r\n        emit contactInfoUpdated(msg.sender, _email);   \r\n    }\r\n\r\n    function getRole(\r\n        address _addr\r\n    ) public view returns (UserRole){\r\n        if(users[_addr].addr == _addr){\r\n            return users[_addr].role;\r\n        }else{\r\n           return UserRole.Anon;\r\n        }\r\n    }\r\n    \r\n}\r\n",
  "sourcePath": "C:\\Users\\BAHRI\\Desktop\\medical-blockchain\\contracts\\Auth.sol",
  "compiler": {
    "name": "solc",
    "version": "0.5.16+commit.9c3226ce.Emscripten.clang"
  },
  "schemaVersion": "3.4.16",
  "updatedAt": "2023-11-02T16:59:41.974Z",
  "networkType": "ethereum",
  "devdoc": {
    "methods": {}
  },
  "userdoc": {
    "methods": {}
  }
}